:020000040000FA
:10000000806A896A92880F0EC16E956A8C6AB40EF6
:10001000156EC80E146E000080A83CD0142EFBD7BD
:10002000152EF7D7010E8C6EB40E156EC80E146E19
:10003000000080A82FD0142EFBD7152EF7D7020E64
:100040008C6EB40E156EC80E146E000080A822D0FF
:10005000142EFBD7152EF7D7040E8C6EB40E156E2A
:10006000C80E146E000080A815D0142EFBD7152ED4
:10007000F7D7080E8C6ECBD7000E8C6EB40E156EB3
:10008000C80E146E000080A811D0142EFBD7152EB8
:10009000F7D7F2D7000E8C6EB40E156EC80E146E24
:1000A0000000142EFDD7152EF9D7E6D7B40E156E25
:1000B000C80E146E0000142EFDD7152EF9D7A7D741
:0200C00000003E
:020000040030CA
:0100010008F6
:010003001EDE
:010006008178
:00000001FF
