:020000040000FA
:0200000004D02A
:020002000000FC
:0800080089D1D38CD38AD3986F
:10001000816A8A6A936A938093880F0EC16E956A8B
:100020008C6A836AF288F286F292F290F28EF19CE8
:10003000609170910F0E206E8C0E216E000E116E6D
:100040006F0E106E090E006F306BD86A1150215C74
:10005000406F10502058D8B835EF00F0303730815D
:10006000206F4050216F37EF00F030373090113360
:10007000119F10B1118F1033109F002F25EF00F04A
:1000800001012150236F246F233B0F0E23172417E8
:100090003050336F346F333B0F0E3317341700007B
:1000A00060B058EF00F070B0F1EF00F04FEF00F0EB
:1000B000B40E156EC80E146E0000000000000000A3
:1000C000142EFAD7152EF6D7B40E156EC80E146E70
:1000D0000000000000000000142EFAD7152EF6D7FD
:1000E00023518C6EB40E156EC80E146E0000000005
:1000F00000000000142EFAD7152EF6D7B40E156E98
:10010000C80E146E0000000000000000142EFAD784
:10011000152EF6D7B40E156EC80E146E0000000032
:1001200000000000142EFAD7152EF6D7B40E156E67
:10013000C80E146E0000000000000000142EFAD754
:10014000152EF6D78C6AB40E156EC80E146E00000C
:10015000000000000000142EFAD7152EF6D7B40EBA
:10016000156EC80E146E0000000000000000142E72
:10017000FAD7152EF6D724518C6EB40E156EC80E14
:10018000146E0000000000000000142EFAD7152E97
:10019000F6D7B40E156EC80E146E000000000000F5
:1001A0000000142EFAD7152EF6D7B40E156EC80E11
:1001B000146E0000000000000000142EFAD7152E67
:1001C000F6D7B40E156EC80E146E000000000000C5
:1001D0000000142EFAD7152EF6D78C6A60904FEFD8
:1001E00000F0B40E156EC80E146E00000000000082
:1001F0000000142EFAD7152EF6D7B40E156EC80EC1
:10020000146E0000000000000000142EFAD7152E16
:10021000F6D733518C6EB40E156EC80E146E0000F6
:10022000000000000000142EFAD7152EF6D7B40EE9
:10023000156EC80E146E0000000000000000142EA1
:10024000FAD7152EF6D7B40E156EC80E146E000030
:10025000000000000000142EFAD7152EF6D7B40EB9
:10026000156EC80E146E0000000000000000142E71
:10027000FAD7152EF6D78C6AB40E156EC80E146E0A
:100280000000000000000000142EFAD7152EF6D74B
:10029000B40E156EC80E146E0000000000000000C1
:1002A000142EFAD7152EF6D734518C6EB40E156E67
:1002B000C80E146E0000000000000000142EFAD7D3
:1002C000152EF6D7B40E156EC80E146E0000000081
:1002D00000000000142EFAD7152EF6D7B40E156EB6
:1002E000C80E146E0000000000000000142EFAD7A3
:1002F000152EF6D7B40E156EC80E146E0000000051
:1003000000000000142EFAD7152EF6D78C6A7090D4
:100310004FEF00F00000FFD712001200F2B2608031
:0A032000F2B07080F292F29010002B
:020000040030CA
:0100010008F6
:010002001FDE
:010003001EDE
:010005008179
:010006008178
:010008000FE8
:01000900C036
:01000A000FE6
:01000B00E014
:01000C000FE4
:01000D0040B2
:00000001FF
