:020000040000FA
:040000003CEF00F0E1
:0600080073826DED1FF094
:100018007380D8CF07F0E8CF08F0E0CF09F0D9CF48
:100028000AF0DACF0BF09EAA1CEF00F01EEF00F0EA
:1000380030EF00F0ABA223EF00F025EF00F02AEF3D
:1000480000F0AB9800F0AB882AEF00F09CEC1EF0B3
:1000580030EF00F030EF00F00BC0DAFF0AC0D9FF34
:1000680009C0E0FF08C0E8FF07C0D8FF7390100080
:040078003FEF1FF047
:100600000048656C6C6F2000576F726C6421006D40
:100610006F646531006D6F64653200636C65617293
:1006200000494E46004E414E00696E66006E616E96
:0B06300000253166006C6600560000DB
:10063C00000E00019B6F000E9A6F41C0ACF042C0DF
:10064C00ADF043C0AEF044C0AFF0AFBF32EF03F03B
:10065C0030EF03F04AEF03F0000E9B6F010E9A6F20
:10066C00ACC00CF0ADC00DF0AEC00EF0AFC00FF0D2
:10067C00E3EC1EF00CC0ACF00DC0ADF00EC0AEF053
:10068C000FC0AFF04AEF03F0000E0001B36F000E85
:10069C00B26F6BC09FF06CC0A0F09A519B11D8A4A4
:1006AC005AEF03F05CEF03F065EF03F06FA461EF1A
:1006BC0003F063EF03F089EF03F065EF03F09A5159
:1006CC009B11D8A46CEF03F06EEF03F074EF03F002
:1006DC00000E856F2B0E846F7AEF03F0000E856F82
:1006EC002D0E846F7AEF03F0000EB225D96E010E39
:1006FC00B321DA6E84C0DFFFB24BB32B9F07D8A0B7
:10070C00A00789EF03F0ACC00CF0ADC00DF0AEC08B
:10071C000EF0AFC00FF02AEC18F00C040D10D8A49A
:10072C009AEF03F09CEF03F006EF04F0BF0E466E59
:10073C00FF0E476E4550486E496A46504826475052
:10074C00492249500AE11A0E485CD8A0B0EF03F0D8
:10075C00B3EF03F0010EB4EF03F0000E0001866F4F
:10076C00876BC4EF03F045C00CF00D6A03EC1FF06F
:10077C000CC086F00DC087F0C4EF03F00001865169
:10078C008711D8B4CCEF03F0CEEF03F0DCEF03F01D
:10079C00000EB2250C6E010EB3210D6E210E0E6EE5
:1007AC00060E0F6E64EC1DF0EBEF03F0000E000173
:1007BC00B2250C6E010EB3210D6E290E0E6E060EB7
:1007CC000F6E64EC1DF0EBEF03F00001FD0E9F27A4
:1007DC00FF0EA0233FC01CF040C01DF0000E1E6E8B
:1007EC00010E1F6E9FC020F0A0C021F058EC1BF032
:1007FC001CC03FF01DC040F0AFEF09F0AFEF09F0A7
:10080C00ACC00CF0ADC00DF0AEC00EF0AFC00FF030
:10081C002AEC18F00C500D10D8A417EF04F019EFB7
:10082C0004F083EF04F0BF0E466EFF0E476E45508A
:10083C00486E496A465048264750492249500AE1B9
:10084C001A0E485CD8A02DEF04F030EF04F0010E26
:10085C0031EF04F0000E0001886F896B41EF04F05A
:10086C0045C00CF00D6A03EC1FF00CC088F00DC0F5
:10087C0089F041EF04F0000188518911D8B449EF97
:10088C0004F04BEF04F059EF04F0000EB2250C6E9F
:10089C00010EB3210D6E250E0E6E060E0F6E64EC5E
:1008AC001DF068EF04F0000E0001B2250C6E010E75
:1008BC00B3210D6E2D0E0E6E060E0F6E64EC1DF038
:1008CC0068EF04F00001FD0E9F27FF0EA0233FC030
:1008DC001CF040C01DF0000E1E6E010E1F6E9FC05E
:1008EC0020F0A0C021F058EC1BF01CC03FF01DC044
:1008FC0040F0AFEF09F0AFEF09F0000E0001B46F5C
:10090C00000EB56F800EB66F3F0EB76F000EB16F55
:10091C00000EB06FACC00CF0ADC00DF0AEC00EF060
:10092C00AFC00FF0000E106E000E116E000E126EA6
:10093C00000E136EC1EC1BF0D8B0A7EF04F0A9EFBA
:10094C0004F038EF05F0CCEF04F0CCEF04F0B4C0B9
:10095C001AF0B5C01BF0B6C01CF0B7C01DF0000EED
:10096C001E6E000E1F6E200E206E410E216EE8ECE6
:10097C000EF01AC0B4F01BC0B5F01CC0B6F01DC010
:10098C00B7F00001B04BB12BCCEF04F0ACC033F09E
:10099C00ADC034F0AEC035F0AFC036F0000E1E6EF8
:1009AC00000E1F6E200E206E410E216EB4C01AF088
:1009BC00B5C01BF0B6C01CF0B7C01DF0E8EC0EF0D3
:1009CC001AC037F01BC038F01CC039F01DC03AF00B
:1009DC003DEC16F0D8B0F5EF04F0F7EF04F0ADEF06
:1009EC0004F01BEF05F01BEF05F0B4C00CF0B5C024
:1009FC000DF0B6C00EF0B7C00FF0000E106E000E6A
:100A0C00116E200E126E410E136E1FEC11F00CC005
:100A1C00B4F00DC0B5F00EC0B6F00FC0B7F00001C9
:100A2C00B007D8A0B1071BEF05F0ACC033F0ADC0D8
:100A3C0034F0AEC035F0AFC036F0B4C037F0B5C04E
:100A4C0038F0B6C039F0B7C03AF03DEC16F0D8A08B
:100A5C0032EF05F034EF05F0FBEF04F038EF05F062
:100A6C0038EF05F045C012F0136ABAEC1CF01250C6
:100A7C000001A16FA1C09EF0670EA119D8A449EF87
:100A8C0005F04BEF05F075EF05F06D506E10D8A426
:100A9C0052EF05F054EF05F05AEF05F0000E6E6EB4
:100AAC00010E6D6E5AEF05F06EBE67EF05F06E50DD
:100ABC0006E16D04D8B065EF05F067EF05F06DEF5A
:100ACC0005F0000E9D6F060E9C6F8AEF05F06DC051
:100ADC009CF06EC09DF08AEF05F08AEF05F06EBEBB
:100AEC007AEF05F07CEF05F082EF05F06DC09CF01D
:100AFC006EC09DF08AEF05F0000E9D6F060E9C6F88
:100B0C008AEF05F08AEF05F0670EA119D8A491EFD2
:100B1C0005F093EF05F0C6EF05F0B1AFA1EF05F0CE
:100B2C00FC0EB05DFF0EB159D8A09FEF05F0A1EF00
:100B3C0005F0C0EF05F0FF0E466EFF0E476E9CC031
:100B4C0048F09DC049F04650482647504922B051C4
:100B5C00485C4950800A4A6EB151800A4A58D8A064
:100B6C00BAEF05F0BCEF05F0C0EF05F0660E9E6F16
:100B7C00C6EF05F0650E9E6FC6EF05F0C6EF05F0EB
:100B8C009CC094F09DC095F0670EA119D8A4D1EF2C
:100B9C0005F0D3EF05F0E5EF05F0660E9E19D8A42D
:100BAC00DAEF05F0DCEF05F0E9EF05F0B1BFE3EFAC
:100BBC0005F0E1EF05F0E9EF05F0E5EF05F0944BFA
:100BCC00952BE9EF05F0660E9E19D8A4F0EF05F011
:100BDC00F2EF05F018EF06F0B1BFF9EF05F0F7EF03
:100BEC0005F007EF06F0000EB46F000EB56F800E27
:100BFC00B66F3F0EB76F000EB16F000EB06F07EF00
:100C0C0006F0670EA119D8B40EEF06F010EF06F03F
:100C1C0018EF06F0B0519427B151952318EF06F058
:100C2C0018EF06F0000EAB6F000EAA6FACC0A2F06E
:100C3C00ADC0A3F0AEC0A4F0AFC0A5F0B4C080F0BE
:100C4C00B5C081F0B6C082F0B7C083F0ABEF06F050
:100C5C00A2C00CF0A3C00DF0A4C00EF0A5C00FF004
:100C6C00B4C010F0B5C011F0B6C012F0B7C013F09C
:100C7C001FEC11F00CC025F00DC026F00EC027F0B3
:100C8C000FC028F02FEC13F025C0A6F026C0A7F05B
:100C9C0027C0A8F028C0A9F0A6C00CF0A7C00DF082
:100CAC00A8C00EF0A9C00FF0F1EC16F00CC098F033
:100CBC000DC099F0A2C033F0A3C034F0A4C035F03D
:100CCC00A5C036F0B4C01EF0B5C01FF0B6C020F001
:100CDC00B7C021F0A6C01AF0A7C01BF0A8C01CF02A
:100CEC00A9C01DF0E8EC0EF01AC037F01BC038F0AC
:100CFC001CC039F01DC03AF077EC1EF033C0A2F0E6
:100D0C0034C0A3F035C0A4F036C0A5F0B4C00CF0CC
:100D1C00B5C00DF0B6C00EF0B7C00FF0000E106EDF
:100D2C00000E116E200E126E410E136E1FEC11F0A0
:100D3C000CC0B4F00DC0B5F00EC0B6F00FC0B7F0DB
:100D4C000001AA4BAB2BABEF06F09451AA5DAB5153
:100D5C00800A466E9551800A4658D8A0B8EF06F026
:100D6C00BAEF06F02EEF06F0BCEF06F0B4C01AF0A6
:100D7C00B5C01BF0B6C01CF0B7C01DF0000E1E6E47
:100D8C00000E1F6EA00E206E400E216EE8EC0EF0D1
:100D9C001AC0A6F01BC0A7F01CC0A8F01DC0A9F07B
:100DAC00A2C033F0A3C034F0A4C035F0A5C036F017
:100DBC00A6C037F0A7C038F0A8C039F0A9C03AF0E7
:100DCC003DEC16F0D8B0EDEF06F0EFEF06F0FAEFD1
:100DDC0006F0000E0001A66F000EA76F000EA86FA4
:100DEC00000EA96F27EF07F0A2C00CF0A3C00DF006
:100DFC00A4C00EF0A5C00FF0A6C010F0A7C011F053
:100E0C00A8C012F0A9C013F0C1EC1BF0D8A011EFD0
:100E1C0007F013EF07F027EF07F0000198B119EF77
:100E2C0007F01BEF07F027EF07F0000EA66F000E80
:100E3C00A76F000EA86F000EA96F27EF07F027EF22
:100E4C0007F0ACC00CF0ADC00DF0AEC00EF0AFC0F2
:100E5C000FF0A6C010F0A7C011F0A8C012F0A9C0E6
:100E6C0013F0B0EC09F00CC0A2F00DC0A3F00EC052
:100E7C00A4F00FC0A5F080C0B4F081C0B5F082C062
:100E8C00B6F083C0B7F0650E00019E19D8B451EFCF
:100E9C0007F053EF07F059EF07F0B0C096F0B1C070
:100EAC0097F05DEF07F0000E976F000E966F000E37
:100EBC00936F000E926F000E916F000E906F000EEC
:100ECC00AB6F000EAA6F63EF08F0A2C00CF0A3C0CA
:100EDC000DF0A4C00EF0A5C00FF0B4C010F0B5C05A
:100EEC0011F0B6C012F0B7C013F01FEC11F00CC02B
:100EFC0025F00DC026F00EC027F00FC028F02FEC07
:100F0C0013F025C0A6F026C0A7F027C0A8F028C073
:100F1C00A9F0A6C00CF0A7C00DF0A8C00EF0A9C097
:100F2C000FF0F1EC16F00CC098F00DC099F06FB802
:100F3C00A2EF07F0A4EF07F0C2EF07F00001985101
:100F4C009911D8A4ACEF07F0AEEF07F0C2EF07F0A1
:100F5C00670EA119D8A4B5EF07F0B7EF07F0C2EFF1
:100F6C0007F097BFBEEF07F0BCEF07F0C2EF07F03A
:100F7C00904B912B15EF08F0000192519311D8A4CE
:100F8C00CAEF07F0CCEF07F0FAEF07F097BFD3EFFB
:100F9C0007F0D1EF07F0FAEF07F0000EB225D96E8B
:100FAC00010EB321DA6E2E0EDF6EB24BB32B9F0700
:100FBC00D8A0A007000E936F010E926FFAEF07F006
:100FCC00FAEF07F0000EB225D96E010EB321DA6EDE
:100FDC00300EDF6EB24BB32B9F07D8A0A007900743
:100FEC00D8A09107FAEF07F090519111D8A401EF16
:100FFC0008F003EF08F0E8EF07F005EF08F0000E3B
:10100C00B225D96E010EB321DA6E9851300FDF6E16
:10101C00B24BB32B9F07D8A0A00715EF08F0A2C0C6
:10102C0033F0A3C034F0A4C035F0A5C036F0B4C082
:10103C001EF0B5C01FF0B6C020F0B7C021F0A6C09E
:10104C001AF0A7C01BF0A8C01CF0A9C01DF0E8EC5A
:10105C000EF01AC037F01BC038F01CC039F01DC0A0
:10106C003AF077EC1EF033C0A2F034C0A3F035C0D8
:10107C00A4F036C0A5F0B4C00CF0B5C00DF0B6C0ED
:10108C000EF0B7C00FF0000E106E000E116E200E99
:10109C00126E410E136E1FEC11F00CC0B4F00DC0AB
:1010AC00B5F00EC0B6F00FC0B7F000019607D8A08F
:1010BC009707AA4BAB2B63EF08F09451AA5DAB5189
:1010CC00800A466E9551800A4658D8B070EF08F0E9
:1010DC0072EF08F084EF08F0B3BF7EEF08F0B35165
:1010EC0009E14B0EB25DD8A07EEF08F080EF08F05E
:1010FC006BEF07F084EF08F084EF08F09251931136
:10110C00D8A48BEF08F08DEF08F0A0EF08F06FA8D3
:10111C0092EF08F094EF08F0A0EF08F0000EB22563
:10112C00D96E010EB321DA6E2E0EDF6EB24BB32BDD
:10113C00A0EF08F0000EB225D96E010EB321DA6EC5
:10114C00000EDF6E650E9E19D8A4AFEF08F0B1EF5C
:10115C0008F09BEF09F0000EAB6F4F0EAA6F000E5C
:10116C00AA25D96E010EAB21DA6E000EDF6E000ED1
:10117C009B6F000E9A6FB1BFC8EF08F0C6EF08F076
:10118C00D2EF08F0000E9B6F010E9A6FB06DB11F7D
:10119C00D8B0B12BD2EF08F0000E9D6F020E9C6FF1
:1011AC0005EF09F0AA07D8A0AB07000EAA25D96E47
:1011BC00010EAB21DA6EB0C00CF0B1C00DF0000E18
:1011CC000F6E0A0E0E6E80EC1AF00C50300FDF6EA4
:1011DC00B0C00CF0B1C00DF0000E0F6E0A0E0E6E0A
:1011EC002FEC19F00CC0B0F00DC0B1F000019C0751
:1011FC00D8A09D079F07D8A0A00705EF09F0B05114
:10120C00B111D8A40CEF09F00EEF09F0D8EF08F0EB
:10121C009DBF1BEF09F09D5106E19C05D8B019EF5D
:10122C0009F01BEF09F0D8EF08F01DEF09F0AA0741
:10123C00D8A0AB079A519B11D8A427EF09F029EF3E
:10124C0009F02FEF09F0000E8B6F2B0E8A6F35EF24
:10125C0009F0000E8B6F2D0E8A6F35EF09F0000E22
:10126C00AA25D96E010EAB21DA6E8AC0DFFF9F076B
:10127C00D8A0A007AA07D8A0AB07BF0E466EFF0EDA
:10128C00476E4550486E496A465048264750492299
:10129C0049500AE11A0E485CD8A057EF09F05AEFF2
:1012AC0009F0010E5BEF09F0000E8E6F8F6B6AEF89
:1012BC0009F045C00CF00D6A03EC1FF00CC08EF069
:1012CC000DC08FF06AEF09F000018E518F11D8A478
:1012DC0072EF09F074EF09F07AEF09F0000E8D6FE0
:1012EC00650E8C6F80EF09F0000E8D6F450E8C6FC4
:1012FC0080EF09F0000EAA25D96E010EAB21DA6E33
:10130C008CC0DFFF9F07D8A0A007000EB2250C6E83
:10131C00010EB3210D6E000EAA250E6E010EAB212F
:10132C000F6E64EC1DF09BEF09F03FC01CF040C049
:10133C001DF0000E1E6E010E1F6E9FC020F0A0C08F
:10134C0021F058EC1BF01CC03FF01DC040F0AFEF7B
:10135C0009F012000F50800B1C6E0F500F241E6EE4
:10136C000EAEBBEF09F0BDEF09F0C0EF09F01E8027
:10137C00C0EF09F01E50D8B4C6EF09F0C8EF09F061
:10138C00DFEF09F01E28D8A4CEEF09F0D0EF09F05A
:10139C00DAEF09F0000E0C6E000E0D6E000E0E6EE4
:1013AC00000E0F6EDAEF09F00E8E000E0F6EE9EFE5
:1013BC0009F0000E0C6E000E0D6E000E0E6E000E7F
:1013CC000F6EE9EF09F01350800B1D6E1C501D18A9
:1013DC00D8B4F3EF09F0F5EF09F0F8EF09F01C8C35
:1013EC00F8EF09F0135013241D6E12AE00EF0AF043
:1013FC0002EF0AF005EF0AF01D8005EF0AF01D5010
:10140C00D8B40BEF0AF00DEF0AF024EF0AF01D2808
:10141C00D8A413EF0AF015EF0AF01FEF0AF0000E34
:10142C00106E000E116E000E126E000E136E1FEF7A
:10143C000AF0128E000E136E2EEF0AF0000E106ED4
:10144C00000E116E000E126E000E136E2EEF0AF0CF
:10145C001E501D5CD8B035EF0AF037EF0AF062EF82
:10146C000AF01CAC3CEF0AF03EEF0AF042EF0AF037
:10147C00800E1C1A42EF0AF01EC01FF01DC01EF099
:10148C001FC01DF00CC01FF010C00CF01FC010F0DE
:10149C000DC01FF011C00DF01FC011F00EC01FF0D9
:1014AC0012C00EF01FC012F00FC01FF013C00FF0CF
:1014BC001FC013F062EF0AF0000E1F6E1E50146E68
:1014CC00156A141E151E144A152A1D50166E176A1D
:1014DC00145016261550172217BE7EEF0AF017501F
:1014EC0009E11A0E165CD8A07EEF0AF080EF0AF024
:1014FC00BDEF0AF00C500D100E100F10D8A489EF90
:10150C000AF08CEF0AF0010E8DEF0AF0000E1F6E40
:10151C00000E0C6E000E0D6E000E0E6E000E0F6E99
:10152C001DC01EF0C8EF0AF0BDEF0AF01FA0A1EF1E
:10153C000AF0A3EF0AF0A9EF0AF0D8901F300109C6
:10154C001F6EADEF0AF0D8901F32ADEF0AF00CA071
:10155C00B2EF0AF0B4EF0AF0B7EF0AF01F8EB7EF54
:10156C000AF00F340F320E320D320C321E2A1D507F
:10157C001E5CD8A0C4EF0AF0C6EF0AF09CEF0AF08C
:10158C00C8EF0AF01CBCCDEF0AF0CFEF0AF017EF52
:10159C000BF01E50D8A4D5EF0AF0D7EF0AF0E3EF0A
:1015AC000AF0000E0C6E000E0D6E000E0E6E000E8C
:1015BC000F6E71EF0CF071EF0CF010500C261150F7
:1015CC000D2212500E2213500F220FA0F0EF0AF032
:1015DC00F2EF0AF0C7EF0BF01FA0F7EF0AF0F9EFEC
:1015EC000AF0FFEF0AF0D8901F3001091F6E03EFCD
:1015FC000BF0D8901F3203EF0BF00CA008EF0BF0A0
:10160C000AEF0BF00DEF0BF01F8E0DEF0BF00F34FC
:10161C000F320E320D320C321E2AC7EF0BF0C7EF11
:10162C000BF010500C5C11500D5812500E580F50FE
:10163C00800A146E1350800A1458D8B028EF0BF09F
:10164C002AEF0BF068EF0BF00CC014F00DC015F086
:10165C000EC016F00FC017F0141E151E161E171E06
:10166C00142A000E15221622172210501424186E5C
:10167C0011501520196E125016201A6E1350172087
:10168C001B6EFF0E18240C6EFF0E19200D6EFF0E34
:10169C001A200E6EFF0E1B200F6E800E1C1A1F6C74
:1016AC001F50D8A45CEF0BF05EEF0BF070EF0BF05B
:1016BC00010E0C26000E0D220E220F2270EF0BF0E5
:1016CC0070EF0BF010500C5E11500D5A12500E5A58
:1016DC0013500F5A0C500D100E100F10D8A479EF98
:1016EC000BF07BEF0BF0BCEF0BF01F50D8A481EF8D
:1016FC000BF083EF0BF0BCEF0BF0000E0C6E000E3A
:10170C000D6E000E0E6E000E0F6E71EF0CF071EF81
:10171C000CF0BCEF0BF0D8900C360D360E360F36A5
:10172C001FAE9BEF0BF09DEF0BF0A0EF0BF00C80BE
:10173C00A0EF0BF01FA0A5EF0BF0A7EF0BF0ABEF9A
:10174C000BF0D8801F36AFEF0BF0D8901F36AFEFF1
:10175C000BF01E50D8B4B5EF0BF0B7EF0BF0BCEF9D
:10176C000BF01E06BCEF0BF0BCEF0BF00EAEC1EF96
:10177C000BF0C3EF0BF091EF0BF0C7EF0BF0C7EFD3
:10178C000BF0000E1D6E1FAECEEF0BF0D0EF0BF07A
:10179C00ECEF0BF01FC014F07F0E1416D8B4D9EF79
:1017AC000BF0DBEF0BF0DFEF0BF0010E1D6EECEF2F
:1017BC000BF00CA0E4EF0BF0E6EF0BF0ECEF0BF002
:1017CC00010E1D6EECEF0BF0ECEF0BF01D50D8B4CE
:1017DC00F2EF0BF0F4EF0BF025EF0CF0010E0C26F2
:1017EC00000E0D220E220F220FA0FFEF0BF001EFC7
:1017FC000CF025EF0CF00CC014F00DC015F00EC061
:10180C0016F00FC017F01734173216321532143287
:10181C0014C00CF015C00DF016C00EF017C00FF070
:10182C001E28D8B41CEF0CF01EEF0CF025EF0CF0BA
:10183C001E2A25EF0CF025EF0CF025EF0CF01E28DE
:10184C00D8B42BEF0CF02DEF0CF037EF0CF01E5042
:10185C00D8A433EF0CF035EF0CF04DEF0CF037EF64
:10186C000CF0000E0C6E000E0D6E000E0E6E000EC7
:10187C000F6E1E50D8A445EF0CF047EF0CF04DEF57
:10188C000CF0000E1C6E4DEF0CF04DEF0CF01EA08A
:10189C0052EF0CF054EF0CF057EF0CF00E8E5AEF99
:1018AC000CF00E9E5AEF0CF0D8901E300F6E1CAE42
:1018BC0062EF0CF064EF0CF067EF0CF00F8E67EF3B
:1018CC000CF00CC00CF00DC00DF00EC00EF00FC0E3
:1018DC000FF071EF0CF012004DC0D9FF4EC0DAFFC3
:1018EC00DECFF6FFDDCFF7FF0800F550250AD8A4B0
:1018FC0082EF0CF084EF0CF0C8EF0EF04DC0D9FF66
:10190C004EC0DAFFDE2A000EDD22000E6C6E000ED9
:10191C006B6E6BC06FF06CC070F06D686E684DC014
:10192C00D9FF4EC0DAFFDECFF6FFDDCFF7FF0800A0
:10193C00F5502A0AD8A4A5EF0CF0A7EF0CF0D2EFC3
:10194C000CF04DC0D9FF4EC0DAFFDE2A000EDD22AE
:10195C004FC0D9FF50C0DAFFDFCF51F0020EDE26A8
:10196C00DFCF52F0000EDD2251C0D9FF52C0DAFF9A
:10197C00DECF6BF0DDCF6CF06CBEC9EF0CF0C7EFB7
:10198C000CF031EF0DF06F806B6C6C1ED8B06C2AC4
:10199C0031EF0DF031EF0DF04DC0D9FF4EC0DAFF35
:1019AC00DECF13F0DDCF14F048EC14F013C06BF065
:1019BC0014C06CF0EBEF0CF04DC0D9FF4EC0DAFF49
:1019CC00DE2A000EDD22EBEF0CF0D00E516EFF0E76
:1019DC00526E4DC0D9FF4EC0DAFFDECFF6FFDDCF21
:1019EC00F7FF0800F550536E546A5150532652506D
:1019FC00542254500AE10A0E535CD8A008EF0DF0A3
:101A0C000BEF0DF0010E0CEF0DF0000E556E566A3B
:101A1C0024EF0DF04DC0D9FF4EC0DAFFDECFF6FF3C
:101A2C00DDCFF7FF0800F5500C6E0D6A21EC1FF0AE
:101A3C000CC055F00DC056F024EF0DF0555056105B
:101A4C00D8A42BEF0DF02DEF0DF0E2EF0CF031EFF1
:101A5C000DF031EF0DF04DC0D9FF4EC0DAFFDECFE7
:101A6C00F6FFDDCFF7FF0800F550126E136ABAECE3
:101A7C001CF012505D6E5D50D8B447EF0DF049EF7D
:101A8C000DF085EF0DF04DC0D9FF4EC0DAFFDECF63
:101A9C0051F0DDCF52F0010E5126000E522251C0F2
:101AAC00F6FF52C0F7FF0800F550126E136ABAEC3D
:101ABC001CF012505E6E5E50D8B467EF0DF069EFFB
:101ACC000DF085EF0DF04DC0D9FF4EC0DAFFDECF23
:101ADC0051F0DDCF52F0020E5126000E522251C0B1
:101AEC00F6FF52C0F7FF0800F550126E136ABAECFD
:101AFC001CF012505F6E85EF0DF085EF0DF0660E49
:101B0C005D18D8A48CEF0DF08EEF0DF0D0EF0DF02A
:101B1C004DC0D9FF4EC0DAFFDECFF6FFDDCFF7FFA9
:101B2C000800F5CF60F04DC0D9FF4EC0DAFFDE2AB9
:101B3C00000EDD224FC0D9FF50C0DAFFDFCF51F0CD
:101B4C00040EDE26DFCF52F0000EDD2251C0D9FF8D
:101B5C0052C0DAFFDECF59F0DECF5AF0DECF5BF0A9
:101B6C00DECF5CF04BC03FF04CC040F059C041F0B0
:101B7C005AC042F05BC043F05CC044F060C045F01A
:101B8C001EEC03F03FC04BF040C04CF0E7EF0EF002
:101B9C00E7EF0EF05D0E0C6E000E0D6E350E0E6E38
:101BAC00060E0F6E000E116E020E106EB1EC18F0D8
:101BBC000C500D10D8A4E5EF0DF0E7EF0DF08EEF03
:101BCC000EF04DC0D9FF4EC0DAFFDECF51F0DDCFA5
:101BDC0052F0010E5126000E522251C0F6FF52C097
:101BEC00F7FF0800F5CF60F0BF0E516EFF0E526E7E
:101BFC004DC0D9FF4EC0DAFFDECFF6FFDDCFF7FFC9
:101C0C000800F550536E546A5150532652505422CA
:101C1C0054500AE11A0E535CD8A017EF0EF01AEFCD
:101C2C000EF0010E1BEF0EF0000E576E586A33EFDC
:101C3C000EF04DC0D9FF4EC0DAFFDECFF6FFDDCF80
:101C4C00F7FF0800F5500C6E0D6A03EC1FF00CC08A
:101C5C0057F00DC058F033EF0EF057505810D8B461
:101C6C003AEF0EF03CEF0EF056EF0EF04FC0D9FFEE
:101C7C0050C0DAFFDFCF51F0040EDE26DFCF52F07A
:101C8C00000EDD2251C0D9FF52C0DAFFDECF59F071
:101C9C00DECF5AF0DECF5BF0DECF5CF06EEF0EF0F5
:101CAC004FC0D9FF50C0DAFFDFCF51F0040EDE2653
:101CBC00DFCF52F0000EDD2251C0D9FF52C0DAFF47
:101CCC00DECF59F0DECF5AF0DECF5BF0DECF5CF02A
:101CDC00020E4DC0D9FF4EC0DAFFDE26000EDD220B
:101CEC004BC03FF04CC040F059C041F05AC042F0DC
:101CFC005BC043F05CC044F060C045F01EEC03F0E8
:101D0C003FC04BF040C04CF0E7EF0EF0E7EF0EF0A9
:101D1C004DC0D9FF4EC0DAFFDECFF6FFDDCFF7FFA7
:101D2C000800F550250AD8A49EEF0EF0A0EF0EF097
:101D3C00B9EF0EF04DC0D9FF4EC0DAFFDE2A000E0F
:101D4C00DD22000E0D6E250E0C6E4BC00EF04CC03D
:101D5C000FF0A5EC19F0000E4C6E010E4B6EE7EF78
:101D6C000EF0E7EF0EF04DC0D9FF4EC0DAFFDE2AC1
:101D7C00000EDD22000E4C6E000E4B6EE7EF0EF0E7
:101D8C00E7EF0EF04DC0D9FF4EC0DAFFDECFF6FF05
:101D9C00DDCFF7FF0800F5500C6E0D6A4BC00EF04E
:101DAC004CC00FF0A5EC19F04DC0D9FF4EC0DAFFB6
:101DBC00DE2A000EDD22000E4C6E010E4B6EE7EF9C
:101DCC000EF012001D50800B266E1D501D242C6E23
:101DDC001CAEF3EF0EF0F5EF0EF0F8EF0EF02C80DA
:101DEC00F8EF0EF02C50D8B4FEEF0EF000EF0FF021
:101DFC0015EF0FF02C28D8A406EF0FF008EF0FF01A
:101E0C0012EF0FF0000E1A6E000E1B6E000E1C6E01
:101E1C00000E1D6E12EF0FF01C8E1FEF0FF0000E58
:101E2C001A6E000E1B6E000E1C6E000E1D6E1FEF48
:101E3C000FF02150800B261A21502124276E20AE42
:101E4C002AEF0FF02CEF0FF02FEF0FF027802FEF72
:101E5C000FF02750D8B435EF0FF037EF0FF04CEFF1
:101E6C000FF02728D8A43DEF0FF03FEF0FF049EF0C
:101E7C000FF0000E1E6E000E1F6E000E206E000E78
:101E8C00216E49EF0FF0208E54EF0FF0000E1E6EF6
:101E9C00000E1F6E000E206E000E216E2750D8B45F
:101EAC005AEF0FF05CEF0FF066EF0FF02C50D8A448
:101EBC0062EF0FF064EF0FF072EF0FF066EF0FF0C0
:101ECC00000E1A6E000E1B6E000E1C6E000E1D6EA8
:101EDC001EEF11F01EEF11F020501A02F3CF31F06B
:101EEC00F4CF32F03150286E296A2A6A2B6A3250AC
:101EFC002D6E2E6A2F6A306A1F501B02F3CF31F001
:101F0C00F4CF32F031502826000E29222A222B221F
:101F1C0032502D26000E2E222F2230221E501C0253
:101F2C00F3CF31F0F4CF32F031502826000E2922B5
:101F3C002A222B2232502D26000E2E222F22302226
:101F4C002AC02BF029C02AF028C029F0286A1E507C
:101F5C001B02F3CF31F0F4CF32F03150282632503F
:101F6C002922000E2A22000E2B221F501A02F3CF18
:101F7C0031F0F4CF32F03150282632502922000EA5
:101F8C002A22000E2B222AC02BF029C02AF028C0AE
:101F9C0029F0286A1E501A02F3CF31F0F4CF32F038
:101FAC003150282632502922000E2A22000E2B22D4
:101FBC0020501B02F3CF31F0F4CF32F031502D26EC
:101FCC0032502E22000E2F22000E30221F501C02E7
:101FDC00F3CF31F0F4CF32F031502D2632502E2287
:101FEC00000E2F22000E302220501C02F3CF31F0B5
:101FFC00F4CF32F03150226E3250236E246A256AAF
:10200C0024C025F023C024F022C023F0226A2250E1
:10201C002D2623502E2224502F222550302228C02A
:10202C0022F029C023F02AC024F02BC025F0190E71
:10203C0025EF10F0D8902532243223322232E82EAC
:10204C0020EF10F022502D2623502E2224502F2228
:10205C00255030222AC02BF029C02AF028C029F0A4
:10206C00286A27502CC022F0236A2226000E232235
:10207C00820E2224316EFF0E2320326E5DEF10F0A3
:10208C00D8902D362E362F3630362BAE50EF10F032
:10209C0052EF10F053EF10F02D80D89028362936DF
:1020AC002A362B363106D8A032065DEF10F02FAE53
:1020BC0062EF10F064EF10F046EF10F066EF10F0E6
:1020CC00000E276E2BAE6DEF10F06FEF10F097EF48
:1020DC0010F0FF0E2814226EFF0E2914236EFF0E33
:1020EC002A14246E7F0E2B14256E225023102410DC
:1020FC002510D8B484EF10F086EF10F08AEF10F0B2
:10210C00010E276E97EF10F02DA08FEF10F091EFCE
:10211C0010F097EF10F0010E276E97EF10F097EF7D
:10212C0010F02750D8B49DEF10F09FEF10F0C7EFD0
:10213C0010F0010E2D26000E2E222F22302230A060
:10214C00AAEF10F0ACEF10F0C7EF10F02DC022F09A
:10215C002EC023F02FC024F030C025F025342532BA
:10216C0024322332223222C02DF023C02EF024C080
:10217C002FF025C030F0314A322AC7EF10F0C7EFEC
:10218C0010F032BED2EF10F0325008E13128D8A056
:10219C00D2EF10F0D4EF10F0DEEF10F0000E2D6E39
:1021AC00000E2E6E800E2F6E7F0E306E12EF11F021
:1021BC0032BEEBEF10F0325006E13104D8B0E9EF4B
:1021CC0010F0EBEF10F0F7EF10F0000E2D6E000E8C
:1021DC002E6E000E2F6E000E306E000E266E12EF5D
:1021EC0011F031C02CF0FF0E2D16FF0E2E167F0EA7
:1021FC002F16000E30162CA006EF11F008EF11F080
:10220C000BEF11F02F8E0BEF11F0D8902C30306EAD
:10221C0012EF11F012EF11F0265030122DC01AF0FF
:10222C002EC01BF02FC01CF030C01DF01EEF11F0A3
:10223C0012000F50800B1C6E0F500F24236E0EAE2D
:10224C002AEF11F02CEF11F02FEF11F023802FEF6C
:10225C0011F02350D8B435EF11F037EF11F04EEFE9
:10226C0011F02328D8A43DEF11F03FEF11F049EF06
:10227C0011F0000E0C6E000E0D6E000E0E6E000EA8
:10228C000F6E49EF11F00E8E000E0F6E58EF11F01D
:10229C00000E0C6E000E0D6E000E0E6E000E0F6E0C
:1022AC0058EF11F01350800B1C1A13501324246E8A
:1022BC0012AE63EF11F065EF11F068EF11F02480AE
:1022CC0068EF11F02450D8B46EEF11F070EF11F0EC
:1022DC0087EF11F02428D8A476EF11F078EF11F0E5
:1022EC0082EF11F0000E106E000E116E000E126EC9
:1022FC00000E136E82EF11F0128E000E136E91EF22
:10230C0011F0000E106E000E116E000E126E000E0B
:10231C00136E91EF11F01050111012101310D8A46D
:10232C009AEF11F09CEF11F0B6EF11F0000E0C6E5D
:10233C00000E0D6E000E0E6E000E0F6E800E0E1245
:10234C007F0E0F121C500F120CC00CF00DC00DF0B4
:10235C000EC00EF00FC00FF02EEF13F02EEF13F097
:10236C002350D8A4BCEF11F0BEEF11F0D2EF11F056
:10237C00000E0C6E000E0D6E000E0E6E000E0F6E2B
:10238C000CC00CF00DC00DF00EC00EF00FC00FF015
:10239C002EEF13F02EEF13F02450146E156A141E4A
:1023AC00151E144A152A2350166E176A1450162639
:1023BC00155017227F0E16241D6E000E17201E6E50
:1023CC000CC018F00DC019F00EC01AF00FC01BF0A5
:1023DC00000E0C6E000E0D6E000E0E6E000E0F6ECB
:1023EC00000E1F6E000E206E000E216E000E226E6F
:1023FC00000E246E3EEF12F02450D8B408EF12F009
:10240C000AEF12F023EF12F0D890183619361A365C
:10241C001B36D8900C360D360E360F3622AE19EF11
:10242C0012F01BEF12F01CEF12F00C80D8901F363C
:10243C0020362136223623EF12F01050185C115042
:10244C00195812501A5813501B58D8A030EF12F0CC
:10245C0032EF12F03DEF12F0228C1050185E11503A
:10246C00195A12501A5A13501B5A3DEF12F0242AC3
:10247C00190E246444EF12F046EF12F002EF12F042
:10248C0048EF12F0185019101A101B10D8B451EF55
:10249C0012F053EF12F06FEF12F01F806FEF12F08B
:1024AC006FEF12F0D8900C360D360E360F3622AE7A
:1024BC0062EF12F064EF12F065EF12F00C80D8901E
:1024CC001F362036213622361D06D8A01E066FEF89
:1024DC0012F00EAE74EF12F076EF12F058EF12F01D
:1024EC0078EF12F0000E246E22AE7FEF12F081EF27
:1024FC0012F0A9EF12F0FF0E1F14146EFF0E201431
:10250C00156EFF0E2114166E7F0E2214176E1450CA
:10251C00151016101710D8B496EF12F098EF12F0A1
:10252C009CEF12F0010E246EA9EF12F00CA0A1EF9B
:10253C0012F0A3EF12F0A9EF12F0010E246EA9EF26
:10254C0012F0A9EF12F02450D8B4AFEF12F0B1EFA3
:10255C0012F0D9EF12F0010E0C26000E0D220E22F5
:10256C000F220FA0BCEF12F0BEEF12F0D9EF12F059
:10257C000CC014F00DC015F00EC016F00FC017F003
:10258C001734173216321532143214C00CF015C031
:10259C000DF016C00EF017C00FF01D4A1E2AD9EF11
:1025AC0012F0D9EF12F01EBEE4EF12F01E5008E14B
:1025BC001D28D8A0E4EF12F0E6EF12F0F3EF12F0C2
:1025CC00000E1E6E1D68000E0C6E000E0D6E000EC1
:1025DC000E6E000E0F6EF3EF12F01EBE00EF13F036
:1025EC001E5006E11D04D8B0FEEF12F000EF13F000
:1025FC0010EF13F0000E1E6E000E1D6E000E0C6E12
:10260C00000E0D6E000E0E6E000E0F6E000E1C6E88
:10261C0010EF13F01DC023F023A017EF13F019EFE8
:10262C0013F01CEF13F00E8E1FEF13F00E9E1FEF26
:10263C0013F0D89023300F6E1C500F120CC00CF0FE
:10264C000DC00DF00EC00EF00FC00FF02EEF13F0FA
:10265C001200D2C035F0D3C036F0D4C037F0D5C09C
:10266C0038F025C035F026C036F027C037F028C02A
:10267C0038F0810E296EFF0E2A6E35C02BF036C055
:10268C002CF037C02DF038C02EF0180E53EF13F08D
:10269C00D8902E322D322C322B32E82E4EEF13F0F6
:1026AC002B502924336E000E2A20346E34BE68EF72
:1026BC0013F0345009E1170E335CD8A068EF13F017
:1026CC006AEF13F074EF13F025C025F026C026F046
:1026DC0027C027F028C028F047EF14F034BE79EF5C
:1026EC0013F07BEF13F0F3EF13F033C029F0FF0E70
:1026FC002A6EFF0E2B6E7F0E2C6E000E2D6E296631
:10270C008AEF13F092EF13F02D342D322C322B3242
:10271C002A32292E85EF13F02AC02FF02BC030F06F
:10272C002CC031F02DC032F02F503514296E3050A2
:10273C0036142A6E315037142B6E325038142C6EDE
:10274C0029502A102B102C10D8A4AFEF13F0B1EF96
:10275C0013F0BBEF13F025C025F026C026F027C0E0
:10276C0027F028C028F047EF14F035C029F036C008
:10277C002AF037C02BF038C02CF0200ECBEF13F022
:10278C00D8902C322B322A322932E82EC6EF13F095
:10279C0029502A102B102C10D8B4D7EF13F0D9EFE6
:1027AC0013F0E1EF13F02F50352630503622315014
:1027BC003722325038222F1C296E301C2A6E311CC5
:1027CC002B6E321C2C6E295035162A5036162B5077
:1027DC0037162C5038163DEF14F035C029F036C0A2
:1027EC002AF037C02BF038C02CF0200E03EF14F079
:1027FC00D8902C322B322A322932E82EFEEF13F0ED
:10280C0029502A102B102C10D8A40FEF14F011EF14
:10281C0014F01BEF14F0000E356E000E366E000E29
:10282C00376E000E386E3DEF14F0D8903534296EAB
:10283C0036342A6E37342B6E38342C6E29502A10CD
:10284C002B102C10D8B42DEF14F02FEF14F03DEF0B
:10285C0014F0000E356E000E366E800E376EBF0E05
:10286C00386E3DEF14F03DEF14F03DEF14F035C031
:10287C0025F036C026F037C027F038C028F047EFD7
:10288C0014F01200000E216E000E206E000E1A6E57
:10289C00000E196E56EF14F0134A142A56EF14F06A
:1028AC00010E1F6E13C0F6FF14C0F7FF0800F550A1
:1028BC00200AD8B464EF14F066EF14F085EF14F02E
:1028CC00F70E156EFF0E166E13C0F6FF14C0F7FF51
:1028DC000800F550176E186A155017261650182256
:1028EC00185009E1050E175CD8A07FEF14F081EFAA
:1028FC0014F085EF14F0000E1F6E85EF14F01FC05E
:10290C001BF01C6A9AEF14F013C0F6FF14C0F7FF0B
:10291C000800F5500C6E0D6AF8EC1DF00CC01BF0A5
:10292C000DC01CF09AEF14F01B501C10D8A4A1EF92
:10293C0014F0A3EF14F052EF14F0B1EF14F0B1EF68
:10294C0014F0000E1A6E010E196EADEF14F0134A4E
:10295C00142AF5EF14F013C0F6FF14C0F7FF0800AB
:10296C00F550156E166A1650000AD8B4C0EF14F064
:10297C00F5EF14F015502B0AD8B4ADEF14F0060A8D
:10298C00D8B4A7EF14F0F5EF14F0F5EF14F0D00E67
:10299C00156EFF0E166E13C0F6FF14C0F7FF08007D
:1029AC00F550176E186A1550172616501822171E58
:1029BC00181E174A182A20C00CF021C00DF0000E6A
:1029CC000F6E0A0E0E6E58EC1FF017500C24206E72
:1029DC0018500D20216E134A142AF5EF14F0D00E66
:1029EC00156EFF0E166E13C0F6FF14C0F7FF08002D
:1029FC00F550176E186A15501726165018221850D5
:102A0C000AE10A0E175CD8A00EEF15F011EF15F0C5
:102A1C00010E12EF15F0000E1D6E1E6A26EF15F05A
:102A2C0013C0F6FF14C0F7FF0800F5500C6E0D6ACA
:102A3C0021EC1FF00CC01DF00DC01EF026EF15F0A0
:102A4C001D501E10D8A42DEF15F02FEF15F0CDEF63
:102A5C0014F031EF15F019501A10D8A438EF15F006
:102A6C003AEF15F048EF15F020C015F021C016F024
:102A7C00151E161E154A162A15C013F016C014F092
:102A8C004EEF15F020C013F021C014F04EEF15F0EE
:102A9C001200146E1450D8B456EF15F058EF15F010
:102AAC007AEF15F00FBE5FEF15F05DEF15F07AEFD2
:102ABC0015F00CC010F00DC011F00EC012F00FC0CC
:102ACC0013F0101E111E121E131E102A000E1122BE
:102ADC001222132210C016F011C017F012C018F0F9
:102AEC0013C019F084EF15F00CC016F00DC017F0E0
:102AFC000EC018F00FC019F084EF15F00C500D102B
:102B0C000E100F10D8A48DEF15F08FEF15F09BEF72
:102B1C0015F0000E0C6E000E0D6E000E0E6E000EFB
:102B2C000F6E3CEF16F03CEF16F0960E156EA7EFFD
:102B3C0015F0152AD8901932183217321632A7EF21
:102B4C0015F0000E1614106E000E1714116E000EF8
:102B5C001814126EFE0E1914136E10501110121060
:102B6C001310D8A4BCEF15F0BEEF15F09FEF15F0C5
:102B7C00CEEF15F0CEEF15F0152A010E1626000E2D
:102B8C00172218221922D8901932183217321632FD
:102B9C00000E1614106E000E1714116E000E181481
:102BAC00126EFF0E1914136E105011101210131018
:102BBC00D8A4E3EF15F0E5EF15F0C2EF15F0F1EF47
:102BCC0015F0F1EF15F01506D890163617361836A5
:102BDC001936F1EF15F018BEF6EF15F0F8EF15F009
:102BEC0002EF16F0020E1560FEEF15F000EF16F076
:102BFC00E9EF15F002EF16F015B007EF16F009EF3C
:102C0C0016F00CEF16F0189E0CEF16F0D89015324B
:102C1C0015C010F0116A126A136A10C013F0126A10
:102C2C00116A106A10501612115017121250181205
:102C3C00135019121450D8B426EF16F028EF16F0D2
:102C4C0032EF16F00FBE2FEF16F02DEF16F032EF1D
:102C5C0016F0198E32EF16F016C00CF017C00DF0EE
:102C6C0018C00EF019C00FF03CEF16F01200000E59
:102C7C0033143B6E000E34143C6E800E35143D6ED6
:102C8C007F0E36143E6E3B503C103D103E10D8A4C7
:102C9C0052EF16F054EF16F05EEF16F0000E336E96
:102CAC00000E346E000E356E000E366E5EEF16F0B2
:102CBC00000E37143B6E000E38143C6E800E391427
:102CCC003D6E7F0E3A143E6E3B503C103D103E1054
:102CDC00D8A473EF16F075EF16F07FEF16F0000E18
:102CEC00376E000E386E000E396E000E3A6E7FEFA6
:102CFC0016F036AE84EF16F086EF16F0A5EF16F050
:102D0C0033C03BF034C03CF035C03DF036C03EF033
:102D1C003B1E3C1E3D1E3E1E3B2A000E3C223D220D
:102D2C003E22000E3B24336E000E3C20346E000E0F
:102D3C003D20356E800E3E20366EA5EF16F03AAE75
:102D4C00AAEF16F0ACEF16F0C9EF16F037C03BF057
:102D5C0038C03CF039C03DF03AC03EF03B1E3C1E42
:102D6C003D1E3E1E3B2A000E3C223D223E22000E02
:102D7C003B24376E000E3C20386E000E3D20396E21
:102D8C00800E3E203A6E000E331A000E341A000EDE
:102D9C00351A800E361A000E371A000E381A000E2D
:102DAC00391A800E3A1A3750335C3850345839502F
:102DBC0035583A503658D8B0E6EF16F0E8EF16F022
:102DCC00EBEF16F0D890F0EF16F0D880F0EF16F08D
:102DDC00F0EF16F012000E340F34156E1550D8A407
:102DEC00FAEF16F0FCEF16F008EF17F0000E0C6E71
:102DFC00000E0D6E000E0E6E000E0F6E99EF17F09A
:102E0C0099EF17F00CC010F00DC011F00EC012F0BD
:102E1C000FC013F0200E18EF17F0D89013321232A7
:102E2C0011321032E82E13EF17F01050146E0E8E74
:102E3C00FF0E0C16FF0E0D16FF0E0E16000E0F16C3
:102E4C00960E155E15BE2FEF17F02DEF17F053EF02
:102E5C0017F01550800A970FD8B037EF17F039EFED
:102E6C0017F047EF17F0000E0C6E000E0D6E000EF3
:102E7C000E6E000E0F6E99EF17F099EF17F047EFEB
:102E8C0017F0D8900F320E320D320C32153E47EF40
:102E9C0017F07DEF17F07DEF17F01F0E156459EF4B
:102EAC0017F05BEF17F071EF17F0000E0C6E000EC1
:102EBC000D6E000E0E6E000E0F6E99EF17F099EF5F
:102ECC0017F071EF17F0D8900C360D360E360F3612
:102EDC00150671EF17F01550D8A477EF17F079EFAE
:102EEC0017F069EF17F07DEF17F07DEF17F0145026
:102EFC00D8B483EF17F085EF17F08FEF17F00F1E94
:102F0C000E1E0D1E0C6C000E0D220E220F228FEFCA
:102F1C0017F00CC00CF00DC00DF00EC00EF00FC071
:102F2C000FF099EF17F012002FEC1DF0000E0001BE
:102F3C00CF6F000ECE6F000ECA6F000ECB6F000E5F
:102F4C00CC6F000ECD6FABEF17F0000E0D6E000EB8
:102F5C000C6EC0EC1EF00CC0CEF00DC0CFF0CEC08D
:102F6C000CF0CFC00DF0000E0DBEFF0E0E6E0F6EEE
:102F7C00010E4FEC15F00CC01AF00DC01BF00EC07A
:102F8C001CF00FC01DF00A0E1E6E280E1F6EA00E38
:102F9C00206E3B0E216EE8EC0EF01AC0CAF01BC07E
:102FAC00CBF01CC0CCF01DC0CDF0DA0E0001B86F18
:102FBC00000EB96F310EBA6F060EBB6FCAC0BCF0F3
:102FCC00CBC0BDF0CCC0BEF0CDC0BFF0C9EC1DF085
:102FDC00DA0E0D6E000E0E6E77EC1CF0380E0D6EC8
:102FEC00060E0E6E77EC1CF0000E0001D16F000E79
:102FFC00D06FD1BF0BEF18F0100ED05D270ED1594A
:10300C00D8A00BEF18F00DEF18F011EF18F0ABEF94
:10301C0017F0ABEF17F0D04BD12BD1BF1FEF18F03F
:10302C00100ED05D270ED159D8A01FEF18F021EF4C
:10303C0018F011EF18F0ABEF17F0ABEF17F0ABEF98
:10304C0017F02FEC1DF01200D6C016F0D7C017F0F9
:10305C00D8C018F0D9C019F00CC016F00DC017F07C
:10306C000EC018F00FC019F016C010F017C011F0F8
:10307C0018C012F019C013F0180E4AEF18F0D890BF
:10308C001332123211321032E82E45EF18F0105074
:10309C00146E156A14501510D8A457EF18F059EF88
:1030AC0018F07DEF18F0D8901634106E1734116E9E
:1030BC001834126E1934136E1050111012101310A4
:1030CC00D8A46BEF18F06DEF18F073EF18F0000E3A
:1030DC000D6E020E0C6EB0EF18F0000E0D6E030E9E
:1030EC000C6EB0EF18F0B0EF18F0B0EF18F0142829
:1030FC001510D8A484EF18F086EF18F0AAEF18F08A
:10310C0016C010F017C011F018C012F019C013F04F
:10311C00090ED8901036113612361336E82E8FEF72
:10312C0018F01050111012101310D8B4A0EF18F0A2
:10313C00A3EF18F0010EA4EF18F0000E0C6E0D6A40
:10314C00B0EF18F0B0EF18F0000E0D6E040E0C6E10
:10315C00B0EF18F012000CC015F00DC016F00EC038
:10316C0017F00FC018F01006D8A01106102806E1B1
:10317C001128D8A4C4EF18F0C6EF18F0D9EF18F046
:10318C00000E0D6E000E0C6E2EEF19F02EEF19F0D6
:10319C00D9EF18F0154A162A174A182A1006D8A083
:1031AC001106D9EF18F015C0D9FF16C0DAFFDF50A1
:1031BC00D8B4E3EF18F0E5EF18F014EF19F017C0DE
:1031CC00F6FF18C0F7FF0800F5500009D8B4F1EF6E
:1031DC0018F0F3EF18F014EF19F010501110D8B4D8
:1031EC00FAEF18F0FCEF18F014EF19F015C0D9FF36
:1031FC0016C0DAFFDF50126E17C0F6FF18C0F7FFCB
:10320C000800F5501218D8B40EEF19F010EF19F0A1
:10321C00D0EF18F014EF19F014EF19F017C0F6FFF7
:10322C0018C0F7FF0800F550126E136A121E131E19
:10323C00124A132A15C0D9FF16C0DAFFDF50146EDC
:10324C00145012240C6E000E13200D6E2EEF19F07C
:10325C001200000E116E0FBE38EF19F036EF19F098
:10326C0040EF19F00E6C0F1ED8B00F2A010E116E24
:10327C0040EF19F00DBE47EF19F045EF19F04FEF85
:10328C0019F00C6C0D1ED8B00D2A010E111A4FEF4F
:10329C0019F0000E136E000E126E0E500F10D8B4F3
:1032AC005AEF19F05CEF19F090EF19F0010E106E57
:1032BC0066EF19F0D8900E360F36102A66EF19F01B
:1032CC000FAE6BEF19F06DEF19F060EF19F071EFB5
:1032DC0019F071EF19F0D890123613360E500C5CB1
:1032EC000F500D58D8A07DEF19F07FEF19F086EF35
:1032FC0019F00E500C5E0F500D5A128086EF19F01B
:10330C00D8900F320E32102E71EF19F090EF19F099
:10331C0090EF19F01150D8B496EF19F098EF19F00E
:10332C009EEF19F0126C131ED8B0132A9EEF19F0F1
:10333C0012C00CF013C00DF0A4EF19F012000E50D7
:10334C000F10D8B4ACEF19F0AEEF19F0B9EF19F0CB
:10335C000E500F10D8A4B5EF19F0B7EF19F0BEEF5F
:10336C0019F0B9EF19F00C50F1EC1FF013EF1AF043
:10337C0020EE04F00E50D9260F50DA22DE50DE106B
:10338C00D8B4CBEF19F0CDEF19F0EAEF19F020EE2D
:10339C0004F00E50D9260F50DA2210EE02F00E5027
:1033AC00E1260F50E222DE50E65CE650800A146EF5
:1033BC00DE50800A1458D8B0E6EF19F0E8EF19F097
:1033CC0013EF1AF0EAEF19F020EE02F00E50D926A6
:1033DC000F50DA22DECF10F0DDCF11F00EC0D9FF86
:1033EC000FC0DAFFDECF12F0DDCF13F01050122435
:1033FC00D96E11501320DA6E0CC0DFFF20EE02F0F4
:10340C000E50D9260F50DA22DE2A000EDD2213EFE1
:10341C001AF013EF1AF013EF1AF012001B501C10D5
:10342C00D8B41BEF1AF01DEF1AF079EF1AF01BC08D
:10343C000CF01CC00DF0FAEC1CF00CC01DF00DC013
:10344C001EF05EEF1AF019C00CF01AC00DF01BC084
:10345C000EF01CC00FF01DC010F01EC011F0B1EC2E
:10346C0018F00C500D10D8A43EEF1AF040EF1AF0E3
:10347C0048EF1AF019C019F01AC01AF07FEF1AF0C1
:10348C007FEF1AF0010E19240C6E000E1A200D6E2F
:10349C001BC0F6FF1CC0F7FF0800F5500E6E0F6A3C
:1034AC0025EC1EF00CC019F00DC01AF05EEF1AF0EE
:1034BC0019501A10D8B465EF1AF067EF1AF079EFBB
:1034CC001AF019C0D9FF1AC0DAFFDF50D8A471EF77
:1034DC001AF073EF1AF029EF1AF079EF1AF079EF6E
:1034EC001AF079EF1AF0000E196E000E1A6E7FEFBB
:1034FC001AF01200000E116E0DBE89EF1AF087EF54
:10350C001AF091EF1AF00C6C0D1ED8B00D2A010EAA
:10351C00116E91EF1AF00FBE98EF1AF096EF1AF0A9
:10352C009EEF1AF00E6C0F1ED8B00F2A9EEF1AF0F9
:10353C000E500F10D8B4A5EF1AF0A7EF1AF0D7EF72
:10354C001AF0010E106EB1EF1AF0D8900E360F363D
:10355C00102AB1EF1AF00FAEB6EF1AF0B8EF1AF05E
:10356C00ABEF1AF0BCEF1AF0BCEF1AF00E500C5C7B
:10357C000F500D58D8A0C5EF1AF0C7EF1AF0CDEFC9
:10358C001AF00E500C5E0F500D5ACDEF1AF0D89069
:10359C000F320E32102EBCEF1AF0D7EF1AF0D7EF15
:1035AC001AF01150D8B4DDEF1AF0DFEF1AF0E5EF96
:1035BC001AF00C6C0D1ED8B00D2AE5EF1AF00CC0E9
:1035CC000CF00DC00DF0EBEF1AF01200000E066EB1
:1035DC0002BEF5EF1AF0F3EF1AF0FDEF1AF0016CE2
:1035EC00021ED8B0022A010E066EFDEF1AF004BEC0
:1035FC0004EF1BF002EF1BF00AEF1BF0036C041E30
:10360C00D8B0042A0AEF1BF003500410D8B411EF01
:10361C001BF013EF1BF043EF1BF0010E056E1DEFBB
:10362C001BF0D89003360436052A1DEF1BF004AEB0
:10363C0022EF1BF024EF1BF017EF1BF028EF1BF011
:10364C0028EF1BF00350015C04500258D8A031EF56
:10365C001BF033EF1BF039EF1BF00350015E0450ED
:10366C00025A39EF1BF0D89004320332052E28EFA2
:10367C001BF043EF1BF043EF1BF00650D8B449EF9F
:10368C001BF04BEF1BF051EF1BF0016C021ED8B07E
:10369C00022A51EF1BF001C001F002C002F057EFFB
:1036AC001BF012006FA05DEF1BF05FEF1BF06BEFD8
:1036BC001BF01EC015F01FC016F01CC017F01DC06B
:1036CC0018F051EC1EF06BEF1BF021BE70EF1BF0ED
:1036DC0072EF1BF078EF1BF020C025F021C026F014
:1036EC007CEF1BF0000E266E000E256E000E246E75
:1036FC00000E236E90EF1BF0000E0D6E200E0C6E64
:10370C001CC00EF01DC00FF0A5EC19F0234A242AA2
:10371C0090EF1BF02550235C2450800A226E26501B
:10372C00800A2258D8A09DEF1BF09FEF1BF082EF70
:10373C001BF06FB0A4EF1BF0A6EF1BF0B2EF1BF069
:10374C001EC015F01FC016F01CC017F01DC018F0DD
:10375C0051EC1EF0B2EF1BF01EC00CF01FC00DF0B0
:10376C00FAEC1CF025500C241C6E26500D201D6EFE
:10377C00C0EF1BF01200000E0C14146E000E0D1492
:10378C00156E800E0E14166E7F0E0F14176E1450DD
:10379C00151016101710D8A4D6EF1BF0D8EF1BF08D
:1037AC00E2EF1BF0000E0C6E000E0D6E000E0E6E96
:1037BC00000E0F6EE2EF1BF0000E1014146E000ED4
:1037CC001114156E800E1214166E7F0E1314176ED4
:1037DC001450151016101710D8A4F7EF1BF0F9EFB2
:1037EC001BF003EF1CF0000E106E000E116E000E9D
:1037FC00126E000E136E03EF1CF010500C180FE13C
:10380C0011500D180CE112500E1809E113500F183D
:10381C00D8B413EF1CF015EF1CF018EF1CF0D89077
:10382C001DEF1CF0D8801DEF1CF01DEF1CF01200DA
:10383C00CDEC1FF022EF1CF0E0EC1FF00CC019F0E7
:10384C000DC01AF01B0E1B6E060E1C6E14EC1AF03B
:10385C0019501A10D8B435EF1CF037EF1CF03BEFB1
:10386C001CF02FEC1DF022EF1CF0E0EC1FF00CC054
:10387C0019F00DC01AF00F0E1B6E060E1C6E14EC18
:10388C001AF019501A10D8B44EEF1CF050EF1CF06F
:10389C0054EF1CF092EC1FF022EF1CF0E0EC1FF048
:1038AC000CC019F00DC01AF0150E1B6E060E1C6E16
:1038BC0014EC1AF019501A10D8B467EF1CF069EF19
:1038CC001CF022EF1CF09AEC17F022EF1CF022EF08
:1038DC001CF022EF1CF022EF1CF022EF1CF03CEF4E
:1038EC0000F0000E126E000E116E99EF1CF01150CC
:1038FC000D240F6E12500E20106E0FC0F6FF10C06C
:10390C00F7FFF86A050EF76403D00800F55005D0F0
:10391C00F6CFE1FFF7CFE2FFE750A3EC1FF0114A1F
:10392C00122A99EF1CF011500D240F6E12500E201C
:10393C00106E0FC0F6FF10C0F7FFF86A050EF764A3
:10394C0003D00800F55005D0F6CFE1FFF7CFE2FF2A
:10395C00E7500009D8A4B5EF1CF0B7EF1CF07DEFD1
:10396C001CF0B9EF1CF01200BF0E146EFF0E156E9A
:10397C0012C016F013C017F014501626155017224B
:10398C0017500AE11A0E165CD8A0CFEF1CF0D2EF3C
:10399C001CF0010ED3EF1CF0000E186E196AE3EF49
:1039AC001CF012C00CF013C00DF003EC1FF00CC097
:1039BC0018F00DC019F0E3EF1CF018501910D8B422
:1039CC00EAEF1CF0ECEF1CF0F5EF1CF0200E1210DF
:1039DC00126E1350136EF9EF1CF0F9EF1CF012C0BD
:1039EC0012F013C013F012000CC010F00DC011F047
:1039FC0004EF1DF00C4A0D2A04EF1DF00CC0F6FF6D
:103A0C000DC0F7FFF86A050EF76403D00800F550F7
:103A1C0005D0F6CFE1FFF7CFE2FFE7500009D8A4BD
:103A2C001AEF1DF01CEF1DF000EF1DF01EEF1DF046
:103A3C0010C00EF011C00FF00E1E0F1E0E4A0F2AF2
:103A4C000C500E240C6E0D500F200D6E2EEF1DF031
:103A5C001200000E0D6E000E0C6E0DBE3FEF1DF031
:103A6C000D5009E10A0E0C5CD8A03FEF1DF041EFA0
:103A7C001DF045EF1DF05FEF1DF05FEF1DF0E60E42
:103A8C000C24D96E000E0D20DA6E000EDF6E0C4A7F
:103A9C000D2A0DBE5BEF1DF00D5009E10A0E0C5CFA
:103AAC00D8A05BEF1DF05DEF1DF045EF1DF05FEF53
:103ABC001DF0000E726E000E716E12000EC012F030
:103ACC000FC013F00CC014F00DC015F070EF1DF00A
:103ADC0070EF1DF01250106E1350116E124A132A13
:103AEC0010C0F6FF11C0F7FFF86A14C0D9FF15C05B
:103AFC00DAFF144A152A050EF76403D00800F550B6
:103B0C0005D0F6CFE1FFF7CFE2FFE750DF6EDF50D5
:103B1C00D8A493EF1DF095EF1DF070EF1DF097EF0B
:103B2C001DF0120063C067F064C068F0000E6A6E8E
:103B3C00000E696EB6EF1DF061C04BF062C04CF028
:103B4C00670E4D6E000E4E6E65C04FF066C050F0A5
:103B5C0072EC0CF04B5069264C506A22B6EF1DF0FB
:103B6C0067C0F6FF68C0F7FF0800F5500009D8A43D
:103B7C00C2EF1DF0C4EF1DF0A2EF1DF069C061F0A3
:103B8C006AC062F01200BC0E0001C26F000EC36F5F
:103B9C00B8C0C4F0B9C0C5F0000EC76F000EC66F38
:103BAC00000EC96F000EC86FC40E616E000E626EFF
:103BBC00BAC063F0BBC064F0C20E656E000E666ED8
:103BCC0098EC1DF061C0C0F062C0C1F00001C6519C
:103BDC00B825D96EC751B921DA6E000EDF6EF7EF3A
:103BEC001DF01200010E126E200E0C180D10D8B420
:103BFC0002EF1EF004EF1EF01FEF1EF0F70E0E6E1C
:103C0C00FF0E0F6E0CC010F00DC011F00E501026F0
:103C1C000F501122115009E1050E105CD8A019EFBC
:103C2C001EF01BEF1EF01FEF1EF0000E126E1FEFAA
:103C3C001EF012C00CF00D6A24EF1EF012000CC026
:103C4C00D9FF0DC0DAFF0E50DE18D8A430EF1EF0ED
:103C5C0032EF1EF03AEF1EF00CC00CF00DC00DF060
:103C6C0050EF1EF050EF1EF00CC0D9FF0DC0DAFF64
:103C7C000C4A0D2ADF50D8A446EF1EF048EF1EF078
:103C8C0025EF1EF04AEF1EF0000E0C6E000E0D6EAE
:103C9C0050EF1EF01200000E1B6E000E1A6E64EF39
:103CAC001EF019C00CF00D6A17C00EF018C00FF002
:103CBC00A5EC19F01A4A1B2A64EF1EF01A501524B1
:103CCC00D96E1B501620DA6EDF50196E1950D8A41D
:103CDC0072EF1EF074EF1EF057EF1EF076EF1EF031
:103CEC001200000E371A000E381A000E391A800E08
:103CFC003A1A33C00CF034C00DF035C00EF036C09B
:103D0C000FF037C010F038C011F039C012F03AC0C3
:103D1C0013F0B0EC09F00CC033F00DC034F00EC051
:103D2C0035F00FC036F09BEF1EF01200E60E71243A
:103D3C00D96E000E7220DA6EAECFDFFFE60E712464
:103D4C00D96E000E7220DA6EDF50B2EC1FF0714AA1
:103D5C00722A71C001F072C002F0000E046E0A0EDD
:103D6C00036EECEC1AF001C071F002C072F0BFEF00
:103D7C001EF01200C294C296C298C29AC282C2802D
:103D8C00C8EF1EF0C2B2CDEF1EF0CFEF1EF0C8EFA1
:103D9C001EF0D1EF1EF0C350C4CF0EF00F6A0EC050
:103DAC000FF00E6A0E10106E0F50116E10C00CF04A
:103DBC0011C00DF0E2EF1EF012000C500D100E10A1
:103DCC000F10D8B4ECEF1EF0EEEF1EF0F8EF1EF073
:103DDC00000E0C1A000E0D1A000E0E1A800E0F1A81
:103DEC00F8EF1EF00CC00CF00DC00DF00EC00EF074
:103DFC000FC00FF002EF1FF01200BF0E0E6EFF0E81
:103E0C000F6E0CC010F00DC011F00E5010260F509C
:103E1C00112211500AE11A0E105CD8A018EF1FF0F5
:103E2C001BEF1FF0010E1CEF1FF0000E0C6E0D6A45
:103E3C0020EF1FF01200D00E0E6EFF0E0F6E0CC096
:103E4C0010F00DC011F00E5010260F501122115011
:103E5C000AE10A0E105CD8A036EF1FF039EF1FF004
:103E6C00010E3AEF1FF0000E0C6E0D6A3EEF1FF0C4
:103E7C00120001EE00F0500EEE6AE806FDE100EED5
:103E8C00D2F01E0EEE6AE806FDE100EE69F00A0EB5
:103E9C00EE6AE806FDE173907392000EF86E000175
:103EAC001EEF1CF00C500E02F3CF10F0F4CF11F0FB
:103EBC000C500F02F35011260D500E02F350112628
:103ECC0010C00CF011C00DF06CEF1FF012000600CA
:103EDC009EA473EF1FF075EF1FF07FEF1FF082743D
:103EEC009E94000EB36E000EB26E7FEF1FF07FEF4C
:103EFC001FF073921100948C948EAC98B896AC848D
:103F0C00330EAF6EAB8E9E889E9AAC8AAB889D9812
:103F1C009F989D8A9F9A12002FEC1DF0010E0D6E3A
:103F2C00060E0E6E77EC1CF0080E0D6E060E0E6E65
:103F3C0077EC1CF02FEC1DF012000C6EA6EF1FF0AE
:103F4C00ACA2ABEF1FF0ADEF1FF0A6EF1FF0AFEF81
:103F5C001FF00CC0ADFF1200016EB5EF1FF0ACA24C
:103F6C00BAEF1FF0BCEF1FF0B5EF1FF0BEEF1FF064
:103F7C0001C0ADFF120092680E0EC16EC08EC080E3
:103F8C00C082C084000EC46E000EC36E1200D8EC4A
:103F9C001FF0EDEC1FF081EC1FF0E7EC1FF0C1EC13
:103FAC001FF01200D38CD38AD398D3508F0B600997
:103FBC00D36E1200E60E0C6E000E0D6EE6EF1FF0C7
:103FCC0012009494090EBD6E9E949F841200D08EA4
:083FDC00F28EF28C12001200BB
:020000040020DA
:08000000FFFFFFFFFFFFFFFF00
:020000040030CA
:0E000000FF881F00FF8381FF0FC00FE00F403D
:00000001FF
