:020000040000FA
:0400000033EF00F0EA
:100018002280D8CF1DF0E8CF1EF0E0CF1FF0D9CF57
:1000280020F0DACF21F09EAA1CEF00F01EEF00F0BE
:1000380027EF00F0AB5021EF00F0A1EC00F027EF24
:1000480000F027EF00F021C0DAFF20C0D9FF1FC061
:10005800E0FF1EC0E8FF1DC0D8FF22901000ECEFA3
:1000680000F0000E1C6E18BE3EEF00F03CEF00F0F2
:1000780046EF00F0176C181ED8B0182A010E1C6E37
:1000880046EF00F01ABE4DEF00F04BEF00F053EFD3
:1000980000F0196C1A1ED8B01A2A53EF00F0195044
:1000A8001A10D8B45AEF00F05CEF00F08CEF00F0B3
:1000B800010E1B6E66EF00F0D89019361A361B2A0F
:1000C80066EF00F01AAE6BEF00F06DEF00F060EF36
:1000D80000F071EF00F071EF00F01950175C1A5042
:1000E8001858D8A07AEF00F07CEF00F082EF00F00B
:1000F8001950175E1A50185A82EF00F0D8901A3229
:1001080019321B2E71EF00F08CEF00F08CEF00F02D
:100118001C50D8B492EF00F094EF00F09AEF00F082
:10012800176C181ED8B0182A9AEF00F017C017F0ED
:1001380018C018F0A0EF00F012000D0E0B24D96EB5
:10014800000E0C20DA6EAE28DF6E0D0E0B24D96E71
:10015800000E0C20DA6EDF50FDEC00F00B4A0C2A82
:100168000BC017F00CC018F0000E1A6E0A0E196EAC
:1001780035EC00F017C00BF018C00CF0240EAE18C8
:10018800D8A4C9EF00F0CBEF00F0CEEF00F0948CCC
:10019800CEEF00F05F0EAE18D8A4D5EF00F0D7EF81
:1001A80000F0DAEF00F0949CDAEF00F01200948C83
:1001B800948EAC98B896AC84330EAF6EAB8E9E9886
:1001C8009E9AAC8AAB889D989F989D8A9F9A1200A8
:1001D80000EE01F0160EEE6AE806FDE1229022928A
:1001E8000001F7EF00F003EC01F0F9EF00F033EF56
:1001F80000F0176E17C0ADFF02EF01F0120008EC17
:1002080001F0DBEC00F01200D08EF28EF28C1200BE
:020000040020DA
:08000000FFFFFFFFFFFFFFFF00
:020000040030CA
:0E000000FF881F00FF8381FF0FC00FE00F403D
:00000001FF
