:020000040000FA
:04000000CBEF3FF013
:107F96000001CEEF3FF0000E026E3C0E016E000EA9
:107FA600046E3C0E036EE0EC3FF001C001F002C02F
:107FB60002F0DCEF3FF000EF00F0896A8A6A8B6A14
:107FC6008C6A01C08CFF03C08BFFE86A8BAE04D0BD
:107FD6008C508A26E86A8922D8908B368B6601D027
:107FE60005D0D89089368A36E86A89228B66EED71C
:0A7FF6008ACF01F089CF02F01200DB
:020000040020DA
:08000000FFFFFFFFFFFFFFFF00
:020000040030CA
:0E000000FF071F1FFF8385FF0FC00FE00F409B
:00000001FF
