:020000040000FA
:0400000007EF00F016
:10000800158209ED00F089EF00F00600D9CF13F052
:10001800DACF14F09EAC13EF00F015EF00F03BEFD1
:1000280000F0D8901134D96E1234DA6E010ED92648
:10003800000EDA22C3CFDEFFC4CFDDFF114A122A39
:1000480012BE30EF00F0125009E1080E115CD8A082
:1000580030EF00F032EF00F038EF00F0000E126ED3
:10006800000E116E38EF00F09E9C4DEF00F0A1A03D
:1000780040EF00F042EF00F04DEF00F0000EB36EDD
:10008800000EB26EA1904DEF00F04DEF00F04DEF75
:1000980000F014C0DAFF13C0D9FF15921100C25046
:1000A800C30B1C09C26E9684C282C280CF0EC116D1
:1000B800C190C192C194C196C050F80B0309C06E9B
:1000C800C050C70B0809C06EC08E9E9C9D8C9F8C2B
:1000D800D08EF28E1200D3508F0B4009D36E53ECA2
:1000E80000F07DEC00F094EC00F079EF00F007EF01
:1000F80000F0BA50F00B0B09BA6EA190A080A28054
:100108007A0EBC6E120EBB6E120000EE01F0120EDB
:10011800EE6AE806FDE11590159200016FEF00F018
:0C012800B18CB18E300EB112B18012000B
:020000040020DA
:08000000FFFFFFFFFFFFFFFF00
:020000040030CA
:0E000000FF081F1EFF8381FF0FC00FE00F409F
:00000001FF
