:020000040000FA
:10000000956A8C6A010E8C6EB40E156EC80E146E55
:1000100000000000000000000000142EF7D7152E8D
:10002000F7D7020E8C6EB40E156EC80E146E00005B
:100030000000000000000000142EF7D7152EF7D79F
:10004000040E8C6EB40E156EC80E146E0000000007
:10005000000000000000142EF7D7152EF7D7080E69
:100060008C6EB40E156EC80E146E000000000000F9
:1000700000000000142EF7D7152EF7D702EF00F07E
:0200800000007E
:020000040030CA
:0100010008F6
:010003001EDE
:010006008178
:00000001FF
