:020000040000FA
:0400000042EF3FF09C
:107E8400000145EF3FF0D39CD38AD3889380000E42
:107E9400946E000E8B6E300EBD12BD50F00B0C09AB
:107EA400BD6E120EBE6E9B0ECB6E000E0B6E4B0E95
:107EB4000A6ECA50FC0B0109CA6ECA8462EF3FF015
:107EC40081B067EF3FF069EF3FF062EF3FF00A06E1
:107ED400D8A00B060AC001F00BC002F0000E046E1D
:107EE400040E036E8AEC3FF00150BE6E0AC009F026
:107EF400030E0916093ABD500918CF0B0918BD6EB7
:107F040062EF3FF062EF3FF062EF3FF000EF00F00E
:107F1400000E066E04BE93EF3FF091EF3FF09BEF2F
:107F24003FF0036C041ED8B0042A010E066E9BEFCA
:107F34003FF002BEA2EF3FF0A0EF3FF0AAEF3FF008
:107F4400016C021ED8B0022A010E061AAAEF3FF0F5
:107F5400000E086E000E076E03500410D8B4B5EF7F
:107F64003FF0B7EF3FF0EBEF3FF0010E056EC1EFCE
:107F74003FF0D89003360436052AC1EF3FF004AE33
:107F8400C6EF3FF0C8EF3FF0BBEF3FF0CCEF3FF060
:107F9400CCEF3FF0D890073608360350015C04500C
:107FA4000258D8A0D8EF3FF0DAEF3FF0E1EF3FF00E
:107FB4000350015E0450025A0780E1EF3FF0D8906D
:107FC40004320332052ECCEF3FF0EBEF3FF0EBEF42
:107FD4003FF00650D8B4F1EF3FF0F3EF3FF0F9EF84
:107FE4003FF0076C081ED8B0082AF9EF3FF007C02D
:0C7FF40001F008C002F0FFEF3FF01200A7
:020000040020DA
:08000000FFFFFFFFFFFFFFFF00
:020000040030CA
:0E000000FF081F1EFF8181FF0FC00FE00F40A1
:00000001FF
