:020000040000FA
:0400000044EF00F0D9
:020004000000FA
:08000800010E8C6E5A0E156EFC
:10001000C80E146E00000000000000000000142E46
:10002000F9D7152EF5D7020E8C6E5A0E156EC80E26
:10003000146E00000000000000000000142EF9D72C
:10004000152EF5D7040E8C6E5A0E156EC80E146E52
:1000500000000000000000000000142EF9D7152E4B
:10006000F5D7080E8C6E5A0E156EC80E146E000071
:100070000000000000000000142EF9D7152EF5D75F
:10008000000E8C6EF2921000816A8A6A93800F0EC5
:10009000C16E956A8C6A836AF288F292F28EF19C44
:0400A0000000FED787
:020000040030CA
:0100010008F6
:010003001EDE
:010006008178
:00000001FF
